:0E0000000C943A000C9467000C9400000C94D1
:10000E0000000C9400000C9400000C9400000C9462
:10001E0000000C9400000C9400000C9400000C9452
:10002E0000000C9400000C9400000C9400000C9442
:10003E0000000C9400000C9400000C9400000C9432
:10004E0000000C94000000003F065B4F666D7D07BC
:10005E007F6F5C7C395E79710100050054001000E1
:10006E00600256000000F894EE27ECBBF1E0FBBFF7
:10007E00EBBFE5BF8DE0A2E0BB27ED938A95E9F7D4
:10008E0080E098E0A0E6ED930197E9F7E6E6F0E070
:10009E0085919591009761F0A591B5910590159078
:1000AE00BF01F00105900D920197E1F7FB01F0CF32
:1000BE00EFE5EDBFE8E0EEBFC0E6D2E00C946D00D8
:1000CE00EA93EFB75394EFBFE9911895E0E0EABBDE
:1000DE00EBBBEFEFE7BBE0E0E8BBE4BBE5BBE1BBAE
:1000EE00E2BBE3BFE2BFECBFEFBDEEBDEDBDECBDCD
:1000FE00E7BDE6BDEBBDEABDE9BDE8BDE2BDE5BDD0
:10010E00E4BDE3BDE9BFEBB7E064EBBFE2E0E5BF02
:10011E00E0E0E4BFE0E4EABFE0E0EAB9E0E8E8B935
:10012E00E0E0E0BFE6B9EDB9E6BF7894E52DF0E08A
:10013E00E05AFD4FE081E8BBA8ECB0E00E94AD00B4
:10014E00E0E1E51509F45524F1CFFFCF109639F013
:10015E00A89580ED97E00197F1F71197C9F70895EB
:00000001FF
