:080000000C943A000C9400007E
:100008000C9400000C9400000C9400000C94000068
:100018000C9400000C9400000C9400000C94000058
:100028000C9400000C9400000C9400000C94000048
:100038000C9400000C9400000C9400000C94000038
:100048000C9400000C9400000C94000000003F0683
:100058005B4F666D7D077F6F5C7C395E797101004F
:10006800050054001000600256000000F894EE27C6
:10007800ECBBF1E0FBBFEBBFE5BF8DE0A2E0BB2727
:10008800ED938A95E9F780E098E0A0E6ED93019773
:10009800E9F7E6E6F0E085919591009761F0A59182
:1000A800B59105901590BF01F00105900D9201974B
:1000B800E1F7FB01F0CFEFE5EDBFE8E0EEBFC0E60A
:1000C800D2E00C946700EFEFEABBE0E0EBBBE7BBE4
:1000D800E8BBE4BBE5BBE1BBE1E0E2BBE0E0E3BFDA
:1000E800E2BFECBFEFBDEEBDEDBDECBDE7BDE6BDCB
:1000F800EBBDEABDE9BDE8BDE2BDE5BDE4BDE3BDDC
:10010800E9BFE5BFE4BFEAB9E0E8E8B9E0E0E0BF8D
:10011800E6B9EDB9E6BFE52DF0E0E05AFD4FE08124
:10012800EBBB809909C05394A8ECB0E00E94A200F0
:10013800E0E1E51509F45524EECFFFCF109639F02C
:10014800A89580ED97E00197F1F71197C9F7089501
:00000001FF
