:0A0000000C9437000C9400000C94DF
:10000A0000000C9400000C9400000C9400000C9466
:10001A0000000C9400000C9400000C9400000C9456
:10002A0000000C9400000C9400000C9400000C9446
:10003A0000000C9400000C9400000C9400000C9436
:10004A0000000C9400000C94000000003F065B4F77
:10005A00666D7D077F6F0100050054000A0060028B
:10006A0056000000F894EE27ECBBF1E0FBBFEBBFB3
:10007A00E5BF8DE0A2E0BB27ED938A95E9F780E022
:10008A0098E0A0E6ED930197E9F7E0E6F0E08591C4
:10009A009591009761F0A591B59105901590BF01D2
:1000AA00F00105900D920197E1F7FB01F0CFEFE522
:1000BA00EDBFE8E0EEBFC0E6D2E00C946400EFEFDB
:1000CA00EABBE0E0EBBBE7BBE8BBE4BBE5BBE1BBFB
:1000DA00E2BBE3BFE2BFECBFEFBDEEBDEDBDECBDE1
:1000EA00E7BDE6BDEBBDEABDE9BDE8BDE2BDE5BDE4
:1000FA00E4BDE3BDE9BFE5BFE4BFEAB9E0E8E8B9BA
:10010A00E0E0E0BFE6B9EDB9E6BFE52DF0E0E05A80
:10011A00FD4FE081EBBBA4E6B0E00E949B00539444
:10012A00EAE0E51509F45524F0CFFFCF109639F02F
:10013A00A89580ED97E00197F1F71197C9F708950F
:00000001FF
