:100000000C9436000C9400000C9400000C9400003A
:100010000C9400000C9400000C9400000C94000060
:100020000C9400000C9400000C9400000C94000050
:100030000C9400000C9400000C9400000C94000040
:100040000C9400000C9400000C9400000C94000030
:100050000C940000415652004C43442054455354E4
:10006000210080C00200600262000000F894EE27C8
:10007000ECBBF1E0FBBFEBBFE5BF8DE0A2E0BB272F
:10008000ED938A95E9F780E098E0A0E6ED9301977B
:10009000E9F7E4E6F0E085919591009761F0A5918C
:1000A000B59105901590BF01F00105900D92019753
:1000B000E1F7FB01F0CFEFE5EDBFE8E0EEBFC0E612
:1000C000D2E00C946300E0E0EABBEBBBE7BBE8BB2B
:1000D000E4BBE5BBE1BBE2BBE3BFE2BFECBFEFBD0E
:1000E000EEBDEDBDECBDE7BDE6BDEBBDEABDE9BDD6
:1000F000E8BDE2BDE5BDE4BDE3BDE9BFE5BFE4BFEA
:10010000EAB9E0E8E8B9E0E0E0BFE6B9EDB9E6BF9A
:10011000A0E16FD0E0E0EA93A0E02CD0A4E5B0E04D
:1001200093D0E5E0EA93A1E025D0A8E5B0E08CD03B
:10013000F1CFFFCFAA93E8B3EF70AE2FE881E07F55
:10014000EA2BE8BB8DE08A95F1F7C29A8DE08A959B
:10015000F1F7C2988DE08A95F1F774C0AA93A8814F
:10016000E9DFE881E295E883A881E4DF85E88A9504
:10017000F1F768C0AA93E881F0E0E05AFD4FE08112
:10018000A981AE0FEBDF5980488022960895A2E046
:1001900061D0ACE0E3DFA1E05DD0E0E04E2E5E2E6A
:1001A0000895AA93A881AA3011F0571448F0E0E00E
:1001B000EA934394A42DDEDFA881AA3009F442C05B
:1001C0005394C09AA881CADFC0983CC0BA93AA933E
:1001D0001A93E981FA813196E983FA833197E491A0
:1001E0001E2FE03019F0A12FDCDFF3CF188123960A
:1001F0000895AA93E7B3E06FE7BBBA9AB89AB99AA1
:10020000C298C098C1987880E881E058E093620273
:10021000E881E054E0936302A4E1B0E00E9436017B
:100220001ED01DD01CD0A0E285DF88EC90E00197A5
:10023000F1F7A8E293DFA4E091DFA5E88FDFA6E065
:100240008DDFA5DF21960895C1DFA8EEB3E00E94FF
:1002500036019DCF83DFA3E0B0E00C943601A0E32C
:1002600069DF88EC90E00197F1F70895109639F076
:10027000A89580ED97E00197F1F71197C9F70895D8
:00000001FF
