:020000000C945E
:1000020040000C9400000C9400000C9400000C942E
:1000120000000C9400000C9400000C9400000C945E
:1000220000000C9400000C9400000C9400000C944E
:1000320000000C9400000C9400000C9400000C943E
:1000420000000C9400000C9400000C9400000C942E
:10005200000056616C75653D256600002D4E414ECF
:10006200000080C001002D4E414E00494E46000066
:100072000200750264000100790266000000F89433
:10008200EE27ECBBF1E0FBBFEBBFE5BF8DE0A2E0EA
:10009200BB27ED938A95E9F780E098E0A0E6ED931F
:1000A2000197E9F7E2E7F0E085919591009761F019
:1000B200A591B59105901590BF01F00105900D92A3
:1000C2000197E1F7FB01F0CFEFE5EDBFE8E0EEBF0E
:1000D200C0E6D2E00C946D00E0E0EABBEBBBE7BB0C
:1000E200E1E0E8BBE0E0E4BBE5BBE1BBE2BBE3BFD0
:1000F200E2BFECBFEFBDEEBDEDBDECBDE7BDE6BDC1
:10010200EBBDEABDE9BDE8BDE2BDE5BDE4BDE3BDD1
:10011200E9BFE5BFE4BFEAB9E0E8E8B9E0E0E0BF83
:10012200E6B9EDB9E6BFA0E10E948104E0E6F2E0A3
:10013200FA93EA93E4E5F0E0FA93EA930E94BE05AB
:100142000E94000984E00E94EE032896E0E0EA9310
:10015200A0E00E944204A0E6B2E00E947004B099BE
:1001620014C00E94BE05ADECBCEC8CEC9DE30E9479
:100172007907E0937102F0937202609373027093B5
:100182007402A8ECB0E00E94C906D0CFFFCFBA93A8
:10019200AA931A930A93AA81BB8112960E94E70836
:1001A200309729F1AA81BB8114960E94E7088F013A
:1001B200309761F00230E0E01E0780F0F8013197DD
:1001C2008F01AA81BB811496ED93FC93AA81BB8116
:1001D20012960E94C7053197AC81A083AA81BB8188
:1001E2000E94E708FF2312F00E94C70506C0AA81F9
:1001F200BB81EFEFFFEFED93FC9319810881259608
:1002020008950E94CD05E0E8EA83EFE3EB830E94C4
:100212001D09EE85FF85EF3FAFEFFA0749F4E88548
:10022200F985FA93EA93AEE5B0E00E94AF04B7C055
:10023200EF3FAFE7FA0749F4E885F985FA93EA93C5
:10024200AFE5B0E00E94AF04AAC0AB85A73010F0C2
:10025200E6E0EB871B85E12F1150E03019F00E9498
:10026200D405F9CFEC85FD856E857F850E9417093F
:1002720021F430E00E94D4052DC03B850E94E305A5
:1002820009F008F40BC00E94D4050E94E30528F08F
:100292000E94EE050E94F305F8CF0DC00E94E3050F
:1002A20040F40E94EE050E94FF050E9406063150AE
:1002B200F5CF0E94D405EC85FD856E857F850E9471
:1002C2000B060E9406060E94E30520F00E94EE053E
:1002D2000E94F30510E0EB85E117A8F1AC81BD8126
:1002E2008E819F810E9412060E940B06DF01CB01C4
:1002F2000E940605EC83FD836E837F830E94EE05D8
:100302000E9417080E9406070E2F0E9419060E94DB
:100312002006FF27662777270E943F07AC81BD8111
:100322008E819F810E94C9070E94EE050E942506C8
:100332000E940606E12F1F5FE03069F60E9419064F
:10034200EEE2EC93C8CF0E942A063197AA85A083D9
:1003520030302CF43195A885B985EDE203C0A8852B
:10036200B985EBE2EC930E942A060E942A06319795
:10037200BF01A32FEAE00E94A108E05DDB01EC933C
:100382000E942A063197BF01A32FEAE00E94CB0800
:10039200E05DDB01EC93A885B985E0E0EC930E9477
:1003A200240960960895BA93AA93EF9761970E94E1
:1003B2001B0910E0FE01E85AFF4F0190F081E02D89
:1003C200E887F987FE01EA5AFF4F0190F081E02D9C
:1003D200EE83FF83AE81BF81E0E0F0E0ED93FC931A
:1003E200DE01A45ABF4F0E94C7053197E4912E2F18
:1003F200E03009F4E9C1E12FE03039F4253211F49B
:1004020011E002C00E943006DEC1E130C1F42532A3
:1004120019F40E943006D6C112E0E0E0ED8B00E054
:100422002D3211F401E0CFC12B3219F4EBE2ED8B46
:10043200CAC1203219F4E0E2ED8BC5C102C0E2303C
:1004420039F450E013E0203311F40068BCC102C05B
:10045200E33091F4203310F02A3308F007C0AAE009
:100462005A9F502DE22FE0535E0FADC140E02E3275
:1004720011F414E0A8C10FC0E43099F4203310F055
:100482002A3308F008C00062AAE04A9F402DE22FFA
:10049200E0534E0F98C12C3619F4026015E093C157
:1004A20003C0E53009F08FC1E22FE33659F40E9410
:1004B20037060E943E060E943706A481AA930E9434
:1004C200450680C1E53411F0E53609F403C0E6368D
:1004D20009F048C0FE017696EE87FF870E944B0620
:1004E2000E94EB080E9452060E945706AD85AA237D
:1004F20032F0AD89AB3259F0A03281F017C00E94C0
:1005020059060E94D3060E945206EDE2ED8B07FFC8
:1005120005C0ED89EA930E94450608C0EE85FF8575
:100522003196EE87FF873197AD89A08305FF46E0BC
:10053200263651F40E9459060E9400094A93AB895B
:10054200BC890E941D0509C00E9459060E9400092B
:100552004A932A93AC89BD8954DEFE0176960E94A5
:100562005E061EC0E33739F40E9457060E946606F3
:100572000E945E060EC0E037C1F40E9457060E9438
:100582006606EE87FF87AE85BF850E94C8041E2FD0
:1005920008600F77403011F0411708F001C0142FA6
:1005A20040E0E0E0EC8B30E06DC0E43611F0E9367B
:1005B20011F4046002C0E537A1F4EAE0EC8B01FF1C
:1005C20008C0E0E0FAEC6AE97BE30E946B061AE0FD
:1005D20022C0E0E1F7E260E070E00E946B0615E005
:1005E2001AC0E83511F4086003C0E83709F0EAC020
:1005F200E0E1EC8B01FF08C0E0E0F0E060E070E1D8
:100602000E946B0618E007C0E0E0F0E160E070E0F5
:100612000E946B0614E0403011F00F7701C041E0F8
:1006220001FF08C00E9457060E944B0614960E94C2
:10063200EB080FC002FF07C00E9457060E94660621
:100642000E948E0806C00E9457060E946606662710
:100652007727EA87FB876C877D8702FF12C0AD850B
:10066200AA2342F40E9459060E9480080E94520660
:10067200EDE2ED8BED89E03019F01F5F4F5F01C0B5
:100682000B7F342F00FD14C0151710F4351708F036
:100692000FC007FF08C002FF04C00B7F2D89115055
:1006A20001C020E301C020E20E9430065150ECCF8D
:1006B200141790F4006102FF06C00E94700609F050
:1006C200515011504150E0E3EA930E9445065030E8
:1006D20009F051504150ECCF312FEC89E030B9F4A0
:1006E2003030A1F003FF06C0EE85FF852591EE872D
:1006F200FF8705C0AE85BF852D91AE87BF870E945B
:100702003006503009F051503150EACF51C00E94AA
:1007120082060E94A6082E2F2A3030F003FF02C064
:10072200295C01C0295A01C0205D04FD21C021338A
:1007320060F4A889B9898A899B89A130E0E0BE0763
:10074200E0E08E07E0E09E0709F40BC0431740F497
:10075200531710F000FF01C010C020E207FF08C0CD
:1007620020E3006102FF04C00E94700609F05150AC
:100772000E943006503009F0515031500E948206DA
:100782000E94D7080E945206EC89A889B9898A89F1
:100792009B89FF27662777270E94A6080E946B067F
:1007A200E889F9896A897B890E94170909F0AFCF24
:1007B20000FF08C0503031F05150E0E2EA930E944D
:1007C2004506F8CF10E00CCEAE81BF810E94E7084B
:1007D2000E942209EF966F960895FF92F82E2697AF
:1007E2000E941D090E948B06309719F4EFEFFFEF6C
:1007F20023C0DE0116960E947C088D010E948B06A2
:10080200EE83FF83E0E0E887E987DE011A960E9423
:100812007C080E94E708FA93EA931A930A93E8EC99
:10082200F0E0FA93EA93DE011A96BDDD9F01AE81F4
:10083200BF81E0E0EC93F9010E9424092A96FF901F
:100842000895AA93EBB3EF70AE2FE881E07FEA2B15
:10085200EBBB8DE08A95F1F7DA9A8DE08A95F1F794
:10086200DA988DE08A95F1F777C0AA93A881E9DF3B
:10087200E881E295E883A881E4DF85E88A95F1F7CB
:100882006BC0AA93E881F0E0EB58FD4FE081A981AB
:10089200AE0FEBDF5980488022960895A2E00E94B5
:1008A2009206ACE0E2DFA1E00E949206E0E04E2E6A
:1008B2005E2E0895AA93A881AA3011F0571448F029
:1008C200E0E0EA934394A42DDCDFA881AA3009F486
:1008D20043C05394D89AA881C8DFD8983DC0BA9330
:1008E200AA931A93A981BA81ED91A983BA831E2F83
:1008F200E03019F0A12FDEDFF5CF1881239608959D
:10090200AA93EAB3E06FEABBD29AD09AD19ADA9864
:10091200D898D9987880E881E058E0937702E88106
:10092200E054E0937802A4E1B0E00E94C9060E947C
:1009320098060E9498060E949806A0E282DF88EC40
:1009420090E00197F1F7A8E290DFA4E08EDFA5E83E
:100952008CDFA6E08ADFA2DF21960895BA93AA93DC
:10096200E991F991A991B991CD0105900D920020DB
:10097200E1F7FC010895BA93AA93A991B991EE27E0
:10098200FF276D91662311F03196FBCF0895BA933C
:10099200AA93AA27BB27E991F9910590002011F0AB
:1009A2001196FBCFFD0108950E9405097B816A81A2
:1009B200F981E88177FB770F67FD7160972F9E576A
:1009C20081F078F0983190F4AA27BB278827089401
:1009D2008795B795A7959A95D1F7EA23FB236823C4
:1009E20005C0E8947727EE27FF2766276F7776956D
:1009F20008F4606877F9A991B99189919991EA17F8
:100A0200FB076807790797FB08950E9405090E9472
:100A1200F6080E94D5040E94FB0819F40E94F1080E
:100A220009C0E6F70E94F108A0E0B0E080E89FE389
:100A32000E94720724960895AFD0E0E0EA83EFE3C4
:100A4200EB831A930A93EB85FC85EF3FAFEFFA072E
:100A520031F475D1A8E6B0E00E94AF048AC0EF3F3E
:100A6200AFE7FA0731F46BD1A9E6B0E00E94AF0418
:100A720080C0AC85AA2352F4E985FA856B857C8512
:100A82000E94D30661D165D1EDE2EC93A885A7302F
:100A920010F0E6E0E8871885E12F1150E03021F0F0
:100AA2005FD1BFD062D1F8CF65D10E9479074CD116
:100AB20010E0E0E0F0E060E87FE357D15BD10E9414
:100AC2005C0868F04DD19AD050D11F5F173230F0D8
:100AD20036D1ADE6B0E00E94AF044BC0EFCF10308C
:100AE20021F437D1E0E3EC9320C0E12F1150E03044
:100AF200E1F036D196D08ED0DF01CB010E940605FF
:100B020034D138D10E9417080E9406070E2F21D136
:100B120096D0F0E025D10E948E080E943F070E94E5
:100B2200C90731D191D010D1E0CFE885E030E9F0AA
:100B320010D1EEE2EC93E885E150E887EF5FA9F08F
:100B420022D15CD001D1E985FA856B857C850E9432
:100B520006070E2FFED073D0F0E015D10E948E084A
:100B62000E943F0771D0F0D0E6CFAE81BF81E0E0B6
:100B7200EC93198108812D960895E0917102F0910C
:100B8200720260917302709174020895ED91FD9169
:100B92003196FE93EE930895BA93AA932497E0E0D8
:100BA200E883E9830895AC81BD818E819F81E0E075
:100BB200F0E060E271E40E94C907EC83FD836E837A
:100BC2007F830895EC81FD816E817F81AC85BD8537
:100BD2008E859F850E945C080895AC85BD858E85B3
:100BE2009F850895EDECFCEC6CEC7DE30E94C90757
:100BF200EC87FD876E877F873F5F0895E0E0F0E036
:100C020060E271E40E94C9070895EC87FD876E8750
:100C12007F870895A0E0B0E080E09FE30E9479071B
:100C22000895EDECFCEC6CEC7DE30E94C90708959D
:100C3200A885B9851196A887B98711970895E02FDD
:100C4200E05DEC93E02F08950E940A090E9472076A
:100C52000895E885F9853196E887F98708952A93FA
:100C6200AF81B885E985FA8509950895FE01E65AAE
:100C7200FF4F0190F081E02D08953497DE01A65ACE
:100C8200BF4FED93FC930895AF81B885E985FA854E
:100C920009950895DE01A65ABF4F0D90BC91A02D73
:100CA2000895EA87FB876C877D870895DFDFE5CFAC
:100CB200EA85FB856C857D850895EE87FF87AE8585
:100CC200BF850E94BC041E2F0895E4DF14960E9483
:100CD200E7080895E88BF98B6A8B7B8B08950B7F6D
:100CE200ED89EA93DE01A95ABF4F0D90BC91A02D68
:100CF200FE01E75AFF4F0190F081E02D0995503037
:100D02000895E889F9896A897B89AA85BB858C85DA
:100D12009D850895DE011C960E947C080E94E708CA
:100D220008950E943604A3E0B0E00C94C906A0E343
:100D32000E94220488EC90E00197F1F70895EE8179
:100D4200FF81FA93EA930895E987FA876B877C8794
:100D52000895AE81BF811196AE83BF831197089526
:100D6200AA81BB818C819D810895EA83FB836C8378
:100D72007D830895EA81FB816C817D81A985BA8595
:100D82008B859C850895A985BA858B859C85089558
:100D9200109639F0A89580ED97E00197F1F7119739
:100DA200C9F7089530976040704009F0705808956F
:100DB200552342F4503811F4E0FF04C03196691F04
:100DC200791F6BF050E8572711F45F93CFC05F3F54
:100DD20031F0660F000C57956795752F08955F9354
:100DE20000200AF0CFC0C8C050E8192E1522880F83
:100DF200991F9527550F879550E8072E0522660FF4
:100E0200771F7527550F67950895689401C0E89478
:100E12005F93F2DF703818F07F3F08F4A7C056E105
:100E2200571BAAF4519558300EF4593030F0EFEFB9
:100E3200FFEF6FEF7FE777F91AC077275523B9F0F5
:100E4200EE0FFF1F661F771F5A95D1F710C0772745
:100E5200583028F0EF2FF62F672F5850F9CF55232F
:100E620031F076956795F795E7955A95D1F7002079
:100E72000AF445D15F910895689401C0E8943097CF
:100E820060407040B1F0002426F0772312F4009401
:100E920036D1172E7EE1112032F07A95EE0FFF1F28
:100EA200661F111CF9CFEF2FF62F612D5F938ADF9A
:100EB2005F9108954F93AF01FD01DA01AB01BC01CF
:100EC200CA01402D012C142E4F910895EA0FFB1FE9
:100ED200681F0895E095F0956095EF5FFF4F6F4FA3
:100EE20008955F9381DF903871F150E8152604C0B0
:100EF2005F937ADF903839F1703821F1572F591BFF
:100F02002BF112F4D7DFFACF583118F0AA27BB27FA
:100F12008827583028F0AB2FB82F88275850F9CFA0
:100F2200552329F08695B795A7955A95D9F7502D4F
:100F3200512572F0CBDF38F46795F795E7957395F5
:100F420013F420C0B7DF3EDF5F910895D8F7FBCFDF
:100F5200EA1BFB0B680B51F010F40094BBDF662315
:100F620092F3EE0FFF1F661F7A95CBF7EE27FF274E
:100F7200662777275F910895EFEFFFEF6FE77FEF27
:100F82005F910895EFEFFFEF6FE77FE75F910895BD
:100F92005F932ADF703851F3903841F301240894AB
:100FA200791F23F41CF300203AF3ECCF0F921F9326
:100FB2002F933F934F93112722279927689FA001D0
:100FC2008F9F302D410D591F6B9F300D411D591FB1
:100FD2008E9F27D0BF9F25D06A9F23D0BE9F1DD052
:100FE200AF9F1BD0AE9F110D291F391F491F591FDB
:100FF200E32FF42F652F522F4F913F912F911F9185
:101002000F9066232AF0550FEE1FFF1F661F02C0C6
:1010120073954BF2CDDE5F910895100D211D391F9E
:1010220002C0200D311D491F591F08955F93DCDE58
:10103200703821F411200AF49FCFA4CF903809F41C
:1010420095CF01240894970B1BF4D4F30020F3CF1F
:10105200792F1F932F933F934F9311241127222708
:1010620033274427552790E2AE17BF07860741076B
:1010720030F0AE1BBF0B860B410B089401C0889465
:10108200551F221F331F111CAA1FBB1F881F441F7D
:101092009A9551F7F901612D4F913F912F911F912F
:1010A200662332F0550FEE1FFF1F661F7A9543F23B
:1010B2007FDE5F91089599239AF0772342F0971784
:1010C20048F029F4AE17BF07860720F031F0989454
:1010D200889408959894089408951894889408958B
:1010E2007723C2F7971798F3A9F7EA17FB07680760
:1010F20088F399F3ECCF0024AF0DB01D0895F0955D
:1011020060957095E195FF4F6F4F7F4F0895FE2FC9
:10111200FF0FFF0B6F2F7F2F08956F2F660F660B48
:10112200762F0895002498E0AA0F001C0E1A10F4DE
:101132000E0E01C0A1609A95B9F7EA2FA02D08956D
:1011420039D0F0DF0EF4E19508953F934F935F930A
:10115200002411244427552730E2AA0FBB1F881F01
:10116200991F001C111C441F551F0E1A1F0A460B03
:10117200570B28F40E0E1F1E461F571F01C0A160F9
:101182003A9559F7FD01BC01D001CA015F914F9117
:101192003F910895E894A7FF02C0A1956894E7FDE6
:1011A200E195C0DFEA2F0EF4E1950895CEDFFD014F
:1011B200BC010895E894E7FF02C0E1956894A7FF97
:1011C20004C0A19500F8039400FA0895ED91FC91F2
:1011D20011970895ED91FD916D917C91139708956A
:1011E200E881F9816A817B810895A881B9818A8128
:1011F2009B810895E883F9836A837B8308957A93B8
:101202006A93FA93EA9308959A938A93BA93AA9364
:101212000895182E862F612D192E972F712D1B2EB2
:10122200BF2FF12D1A2EAE2FE12D08953097604079
:10123200704008955A934A933A932A931A930A93C1
:1012420008955D814C813B812A811981088108952D
:00000001FF
