:0A0000000C9442000C9400000C94D4
:10000A0000000C9400000C9400000C9400000C9466
:10001A0000000C9400000C9400000C9400000C9456
:10002A0000000C946F000C9400000C9400000C94D7
:10003A0000000C9400000C9400000C9400000C9436
:10004A0000000C9400000C9400001027E8036400E0
:10005A000A00010000100001100001000000000069
:10006A0056616C75653D2564000080C0040004007B
:10007A0066000200710274000000F894EE27ECBBDF
:10008A00F1E0FBBFEBBFE5BF8DE0A2E0BB27ED933C
:10009A008A95E9F780E098E0A0E6ED930197E9F701
:1000AA00E6E7F0E085919591009761F0A591B59109
:1000BA0005901590BF01F00105900D920197E1F7A7
:1000CA00FB01F0CFEFE5EDBFE8E0EEBFC0E6D2E01E
:1000DA000C947B00EA93FA93EFB7EA93F201319614
:1000EA002F01E991EFBFF991E9911895E0E0EABB98
:1000FA00EBBBE7BBE8BBE4BBE5BBE1BBE2BBE5E0CE
:10010A00E3BFE0E0E2BFECBFEFBDEEBDEDBDECBD8D
:10011A00E7BDE6BDEBBDEABDE9BDE8BDE2BDE5BDB3
:10012A00E4BDE3BDE1E0E9BFE0E0E5BFE4BFEAB971
:10013A00E0E8E8B9E0E0E0BFE6B9EDB9E6BFA8E07B
:10014A0084D07894EDE1F0E0E415F505ECF444246C
:10015A005524F30131963F01E0E6F2E0FA93EA937F
:10016A00EAE6F0E0FA93EA93F3010E9465030E943B
:10017A00720384E00E94CC022896E0E0EA93A0E0B1
:10018A0025D0A0E6B2E050D0DDCFFFCFAA93E8B3E6
:10019A00EF70AE2FE881E07FEA2BE8BB8DE08A950D
:1001AA00F1F7C39A8DE08A95F1F7C3988DE08A95A5
:1001BA00F1F777C0AA93A881E9DFE881E295E8839D
:1001CA00A881E4DF85E88A95F1F76BC0AA93E881F4
:1001DA00F0E0EF58FD4FE081A981AE0FEBDF998087
:1001EA00888022960895A2E00E941903ACE0E2DF1B
:1001FA00A1E00E941903E0E08E2E9E2E0895AA9394
:10020A00A881AA3011F09B1448F0E0E0EA938394A5
:10021A00A82DDCDFA881AA3009F443C09394C19ABF
:10022A00A881C8DFC1983DC0BA93AA931A93A9813D
:10023A00BA81ED91A983BA831E2FE03019F0A12F5C
:10024A00DEDFF5CF188123960895AA93E7B3E06F0E
:10025A00E7BBBB9AB99ABA9AC398C198C298B880B0
:10026A00E881E058E0937302E881E054E093740275
:10027A00A4E1B0E00E9453030E941F030E941F03DF
:10028A000E941F03A0E282DF88EC90E00197F1F759
:10029A00A8E290DFA4E08EDFA5E88CDFA6E08ADF83
:1002AA00A2DF21960895BA93AA931A930A93AA8170
:1002BA00BB8112960E946A03309759F1AA81BB81C9
:1002CA0014960E946A038F01309761F00230E0E0D1
:1002DA001E0798F0F80131978F01AA81BB81149605
:1002EA00ED93FC93AA81BB811296ED91FD91319613
:1002FA00FE93EE933197AC81A083AA81BB810E94C1
:10030A006A03FF232AF0ED91FD913196FE93EE9355
:10031A0006C0AA81BB81EFEFFFEFED93FC93198131
:10032A00088125960895BA93AA9326970E9477037F
:10033A0010E0AC85BD85E0E0F0E0ED93FC93EA893E
:10034A00FB893196EA8BFB8B3197E4912E2FE030B3
:10035A0009F415C1E12FE03039F4253211F411E026
:10036A0002C00E9427030AC1E130A9F4253219F418
:10037A000E94270302C112E040E000E02D3211F48E
:10038A0001E0FCC02B3211F44BE2F8C0203211F428
:10039A0040E2F4C002C0E23039F450E013E0203306
:1003AA0011F40068EBC003C0E33009F0E7C0203362
:1003BA0010F02A3308F007C0AAE05A9F502DE22F06
:1003CA00E0535E0FDBC0E22FE33649F40E942E03AE
:1003DA00E889F989A481AA930E943403CEC0E3373D
:1003EA0041F40E942E030E943A030E9400031E2F2A
:1003FA000AC0E03761F40E942E030E943A030E9469
:10040A000C031E2F086002600F7730E034C0E43618
:10041A0011F0E93611F4046002C0E53731F4E4E57D
:10042A00F0E0EE83FF8315E00CC0E83511F40860B4
:10043A0003C0E83709F0A1C0EEE5F0E0EE83FF83E0
:10044A0014E002FF14C00E942E030E944403AB85ED
:10045A00AA233AF4EA85FB850E946103EA87FB87AF
:10046A004DE2403011F01F5F01C00B7F04C00E94B3
:10047A002E030E94440300FD11C0151778F407FFEC
:10048A0008C002FF04C00B7F242F115001C020E3D3
:10049A0001C020E20E9427035150EFCF312F01FF04
:1004AA0017C03030A1F003FF06C0EE81FF8125910D
:1004BA00EE83FF8305C0AE81BF812D91AE83BF83DA
:1004CA000E942703503009F051503150EACF4BC0F7
:1004DA0020E3EE81FF810E946E03E887F987EE81AF
:1004EA00FF813296EE83FF83E885F985AA85BB856D
:1004FA00AE17BF0750F02F5FA885B985EA85FB853F
:10050A00EA1BFB0BEA87FB87EFCF2A3328F003FFAE
:10051A0002C0295F01C0295D04FD1AC0213320F4FD
:10052A00A885B985119709F409C0531710F000FF7F
:10053A0001C013C020E207FF0BC020E3006102FFE5
:10054A0007C00B7F4A930E943403503009F0515080
:10055A000E942703503009F051503150A885B985BF
:10056A00129708F0B5CF00FF08C0503031F0515053
:10057A00E0E2EA930E943403F8CF10E0E0CEAC85C3
:10058A00BD850E946A030E947E0364960895FF92C5
:10059A00F82E26970E9479030E944C03309719F48B
:1005AA00EFEFFFEF23C0DE0116960E945D038D0177
:1005BA000E944C03EE83FF83E0E0E887E987DE01CF
:1005CA001A960E945D030E946A03FA93EA931A93A9
:1005DA000A93E8E5F1E0FA93EA93DE011A96A3DEBC
:1005EA009F01AE81BF81E0E0EC93F9010E94800394
:1005FA002A96FF900895BA93AA93A991B991EE27E2
:10060A00FF276D91662311F03196FBCF0895BA93B7
:10061A00AA93AA27BB27E991F9910590002011F026
:10062A001196FBCFFD0108950E94DF00A3E0B0E020
:10063A000C945303A0E30E94CB0088EC90E001974E
:10064A00F1F708952A93AD85BE85EF85F889099556
:10065A000895E889F9893497E88BF98B0895AD856F
:10066A00BE85EF85F88909950895A889B9891496F0
:10067A000E946A03EE83FF83AE81BF810895A88931
:10068A00B98914960E946A03EA87FB870895DE01F6
:10069A001C960E945D030E946A030895109639F021
:1006AA00A89580ED97E00197F1F71197C9F708959A
:1006BA000024AF0DB01D0895F195E195F04008951D
:1006CA006F2F660F660B762F0895ED91FC911197A7
:1006DA0008950590F491E02D08957A936A93FA9318
:1006EA00EA9308955A934A933A932A931A930A9348
:1006FA0008955D814C813B812A8119810881089581
:00000001FF
