:0C0000000C9430000C9400000C940000E4
:10000C000C9400000C9400000C9400000C94000064
:10001C000C9400000C9400000C9400000C94000054
:10002C000C9400000C9400000C9400000C94000044
:10003C000C9400000C9400000C9400000C94000034
:10004C000C9400000C940000010101010400040058
:10005C0054000000F894EE27ECBBF1E0FBBFEBBFC3
:10006C00E5BF8DE0A2E0BB27ED938A95E9F780E030
:10007C0098E0A0E6ED930197E9F7E8E5F0E08591CB
:10008C009591009761F0A591B59105901590BF01E0
:10009C00F00105900D920197E1F7FB01F0CFEFE530
:1000AC00EDBFE8E0EEBFC0E6D2E00C945D00EFEFF0
:1000BC00EABBE0E0EBBBEFEFE7BBE0E0E8BBEFEF68
:1000CC00E4BBE0E0E5BBEFEFE1BBE0E0E2BBE3BFAC
:1000DC00E2BFECBFEFBDEEBDEDBDECBDE7BDE6BDD7
:1000EC00EBBDEABDE9BDE8BDE2BDE5BDE4BDE3BDE8
:1000FC00E9BFE5BFE4BFEAB9E0E8E8B9E0E0E0BF9A
:10010C00E6B9EDB9E6BF5BBA48BA75BA62BA51D076
:10011C00E6E0F0E060E070E055D029F4550C552095
:10012C0011F4E1E05E2E45D0E1E1F0E060E070E03A
:10013C0049D029F4440C442011F4E1E04E2E39D07E
:10014C00EDE1F0E060E070E03DD029F4770C772031
:10015C0011F4E1E07E2E2DD0EBE2F0E060E070E0F7
:10016C0031D029F4660C662011F4E1E06E2EAAE081
:10017C00B0E00E94ED001DD0AA3DE0EFBE07E1E02B
:10018C008E07E0E09E0749F4E0E0E0936002E09324
:10019C006102E0936202E0936302A0E6B2E00E9487
:1001AC003801EF5FFF4F6F4F7F4F0E943D01ABCF88
:1001BC00FFCFA0916002B091610280916202909198
:1001CC00630208950E9424010E9442010895109632
:1001DC0039F0A89580ED97E00197F1F71197C9F7E1
:1001EC000895F09560957095E195FF4F6F4F7F4F97
:1001FC0008953F934F935F93002411244427552770
:10020C0030E2AA0FBB1F881F991F001C111C441F32
:10021C00551F0E1A1F0A460B570B28F40E0E1F1EE5
:10022C00461F571F01C0A1603A9559F7FD01BC014B
:10023C00D001CA015F914F913F910895E89497FFC7
:10024C0009C0A095B09580959095AF5FBF4F8F4F2B
:10025C009F4F689477FDC5DFCCDFFD01BC010EF428
:10026C00C0DF0895ED91FD916D917D9108957E9380
:10027C006E93FE93EE93089530976040704008950E
:00000001FF
