:100000000C9479000C94A6000C94AB000C94B000F6
:100010000C9400000C9400000C9400000C94000060
:100020000C9400000C9400000C9400000C94C00090
:100030000C9400000C9400000C9400000C94000040
:100040000C9400000C9400000C9400000C94000030
:100050000C9400001027E80364000A00010000105F
:10006000000110000100000000000000000000007E
:100070003F065B4F666D7D077F6F5C7C395E7971F3
:10008000010001003E204C45440042757A7A6572B9
:10009000003E2042757A7A6572003E2052656C619E
:1000A0007900456E7465722050617373776F726466
:1000B0003A002563002A3134230057726F6E67209F
:1000C00070617373776F7264210080C00A0004004E
:1000D00066001000650270000100A10280000100AE
:1000E000A702820005006002B5000200A902CA0052
:1000F0000000F894EE27ECBBF1E0FBBFEBBFE5BFDF
:100100008DE0A2E0BB27ED938A95E9F780E098E0C7
:10011000A0E6ED930197E9F7ECECF0E0859195917D
:10012000009761F0A591B59105901590BF01F00180
:1001300005900D920197E1F7FB01F0CFEFE5EDBFE0
:10014000E8E0EEBFC0E6D2E00C945F010E94EC054F
:10015000ADE9B2E009C00E94EC05ABE9B2E004C031
:100160000E94EC05A5E7B2E0ED91FD913196FE937A
:10017000EE93E991EFBFF991E991B991A9911895A1
:10018000EA93FA93EFB7EA93F20131962F01E991DE
:10019000EFBFF991E9911895BA93AA931A9310E3D6
:1001A000E981FA81309711F411E359C0E130A0E000
:1001B000FA0711F412E353C0E230A0E0FA0711F499
:1001C00013E34DC0E330A0E0FA0711F411E447C097
:1001D000E430A0E0FA0711F414E341C0E530A0E0F8
:1001E000FA0711F415E33BC0E630A0E0FA0711F47A
:1001F00016E335C0E730A0E0FA0711F412E42FC08F
:10020000E830A0E0FA0711F417E329C0E930A0E0D4
:10021000FA0711F418E323C0EA30A0E0FA0711F45A
:1002200019E31DC0EB30A0E0FA0711F413E417C086
:10023000EC30A0E0FA0711F41AE211C0ED30A0E0B2
:10024000FA0711F410E30BC0EE30A0E0FA0711F446
:1002500013E205C0EF30A0E0FA0709F414E4E12F3F
:100260000C947D050E943005E0919902F0919A026C
:10027000309749F40E94F305A4E8B0E00E94F80525
:10028000AAE8B0E019C0E130A0E0FA0749F40E9402
:10029000F305A6E8B0E00E94F805A1E9B0E00CC0C3
:1002A000E230A0E0FA0751F40E94F305AAE8B0E0BA
:1002B0000E94F805AAE9B0E00E946D050895EFEFED
:1002C000EABBE0E0EBBB0E94FF05E0E0E7BBE8BB78
:1002D000E7E0E4BBE0E0E5BBE1BBE2BBE3E0E3BFBA
:1002E000E0E0E2BFECBFEFBDEEBDEDBDECBDE7BDB4
:1002F000E6BDEBBDEABDE9BDE8BDE2BDE5BDE4BDDF
:10030000E3BDE1E0E9BFEBB7E06EEBBFEEE0E5BFD8
:10031000E0E0E4BFE0EEEABFE0E0EAB9E0E8E8B937
:10032000E0E0E0BFE6B9EDB9E6BFA0E10E948005DC
:100330007894062C072809F0DCC0229700240814C2
:10034000090449F4E0919502F0919602309719F46E
:100350000C2C0D2809F00EC00E9430050E94F305F8
:10036000A2EAB0E00E946D05E1E0F0E0E0939502C2
:10037000F09396020E9406061CF40C2C0D2809F03E
:100380000EC00E94FF05F50131965F0144245524FB
:10039000EFE0F0E0EA15FB0514F4AA24BB24E09199
:1003A0007502F0917602309709F488C0E0E0E0939E
:1003B0007502E0937602E4E0F0E08E169F060CF002
:1003C0007DC0E0E0EA93A1E00E941F05FE01FA93E0
:1003D000EA93E2EBF0E0FA93EA93E0B3E07FF0E037
:1003E0000E947B06DF01D8DEFF27662777270E9461
:1003F000AD0684E00E94CB042896F401E958FD4F35
:10040000A881A083A6E8B2E0A80DB91DEAE2EC93AA
:10041000F401E957FD4FA0E0A083A6E8B2E00E94F6
:100420005E05F40131964F01E4E0F0E0E815F905CE
:1004300009F044C0E0E0E0937B020E940B06A0E6D6
:10044000B2E00E94BF05E03009F50E9430050ADFE6
:10045000E1E0F0E03F01E0E0E0939702E0939802F2
:10046000E0939902E0939A02E1E0F0E0E093A102C8
:10047000F093A202E0E0E0939F02E093A0020E94CA
:100480001006E093A502E093A60218C00E94300572
:100490000E94F305AAEBB0E00E946D05E1E0F0E0F8
:1004A0006F01442455240E940B060E9416060E94E8
:1004B0001C06E0E0E0939502E09396020C2C0D28D8
:1004C000B1F00E9406069CF4442455240E94300595
:1004D000CC24DD24882499240E940B060E94160651
:1004E0000E941C06E0E0E0939502E09396022296BB
:1004F000DCC0E0919D02F0919E02309759F0E0E05F
:10050000E0939D02E0939E02E1E0F0E0E0939F0221
:10051000F093A002E0919B02F0919C02309759F079
:10052000E0E0E0939B02E0939C02E1E0F0E0E093E6
:10053000A302F093A402E0919F02F091A0023097F1
:10054000B9F1E1E6F0E0E415F50594F5442455240D
:10055000E0E0E0939F02E093A002A091A102B0919D
:10056000A202E1E0F0E0EA27FB27E093A102F0938A
:10057000A202E0E0E5BB0E9430050E941006EBBB42
:10058000E0E0E093A502E093A602E091A102F091E1
:10059000A202309731F0E0E0E0939702E0939802F6
:1005A00006C0E1E0F0E0E0939702F09398025ADE93
:1005B000E091A102F091A202309739F1E091A302FB
:1005C000F091A402309701F1E1E6F0E0E415F505C1
:1005D000DCF444245524E0E0E093A302E093A40279
:1005E000A0919902B0919A021196E3E0F0E00E9486
:1005F0009706E0939902F0939A0234DEE1E0F0E08E
:10060000E093A702F093A80250C0E0919902F09104
:100610009A02309781F40E94210611F00E94270669
:100620000E94F305A6E8B0E00E946D05E1E0E5BB9D
:10063000E0916F0239C0E130A0E0FA0711F50E94A5
:10064000210611F00E9427060E94F305AAE8B0E0F7
:100650000E946D05E0917002EBBBE091A502F09164
:10066000A602309711F4E2E0E5BB0E94060644F4CE
:10067000E1E0F0E0E093A502F093A602E0E0E5BB44
:1006800014C0E230A0E0FA0781F40E94210611F0C4
:100690000E9427060E94F305ACE9B0E00E946D05B8
:1006A000E4E0E5BBE0917102EBBB43CEFFCFBA9330
:1006B000AA931A930A93AA81BB8112960E94A50657
:1006C000309759F1AA81BB8114960E94A5068F012B
:1006D000309761F00230E0E01E0798F0F8013197A2
:1006E0008F01AA81BB811496ED93FC93AA81BB81F3
:1006F0001296ED91FD913196FE93EE933197AC8178
:10070000A083AA81BB810E94A506FF232AF0ED9158
:10071000FD913196FE93EE9306C0AA81BB81EFEF67
:10072000FFEFED93FC93198108810C94BD05BA93FA
:10073000AA9326970E94B20610E0AC85BD85E0E042
:10074000F0E0ED93FC93EA89FB893196EA8BFB8B11
:100750003197E4912E2FE03009F415C1E12FE030FC
:1007600039F4253211F411E002C00E942F060AC1AB
:10077000E130A9F4253219F40E942F0602C112E0DB
:1007800040E000E02D3211F401E0FCC02B3211F406
:100790004BE2F8C0203211F440E2F4C002C0E23073
:1007A00039F450E013E0203311F40068EBC003C0CB
:1007B000E33009F0E7C0203310F02A3308F007C017
:1007C000AAE05A9F502DE22FE0535E0FDBC0E22FCC
:1007D000E33649F40E943606E889F989A481AA9390
:1007E0000E943C06CEC0E33741F40E9436060E94C8
:1007F00042060E94D3051E2F0AC0E03761F40E9412
:1008000036060E9442060E94DF051E2F0860026025
:100810000F7730E034C0E43611F0E93611F40460AB
:1008200002C0E53731F4E4E5F0E0EE83FF8315E044
:100830000CC0E83511F4086003C0E83709F0A1C026
:10084000EEE5F0E0EE83FF8314E002FF14C00E94A7
:1008500036060E944C06AB85AA233AF4EA85FB854E
:100860000E947706EA87FB874DE2403011F01F5F58
:1008700001C00B7F04C00E9436060E944C0600FD9A
:1008800011C0151778F407FF08C002FF04C00B7FE2
:10089000242F115001C020E301C020E20E942F0646
:1008A0005150EFCF312F01FF17C03030A1F003FFBF
:1008B00006C0EE81FF812591EE83FF8305C0AE81E6
:1008C000BF812D91AE83BF830E942F06503009F067
:1008D00051503150EACF4BC020E3EE81FF810E949E
:1008E000A906E887F987EE81FF813296EE83FF83C0
:1008F000E885F985AA85BB85AE17BF0750F02F5F45
:10090000A885B985EA85FB85EA1BFB0BEA87FB878F
:10091000EFCF2A3328F003FF02C0295F01C0295D11
:1009200004FD1AC0213320F4A885B985119709F474
:1009300009C0531710F000FF01C013C020E207FFE9
:100940000BC020E3006102FF07C00B7F4A930E94A7
:100950003C06503009F051500E942F06503009F0EB
:1009600051503150A885B985129708F0B5CF00FFD6
:1009700008C0503031F05150E0E2EA930E943C064A
:10098000F8CF10E0E0CEAC85BD850E94A5060E94A0
:10099000B90664960895FF92F82E26970E94B40631
:1009A0000E945406309719F4EFEFFFEF23C0DE01E9
:1009B00016960E9473068D010E945406EE83FF83F3
:1009C000E0E0E887E987DE011A960E9473060E943C
:1009D000A506FA93EA931A930A93E7E5F3E0FA93EC
:1009E000EA93DE011A96A3DE9F01AE81BF81E0E0AB
:1009F000EC93F9010E94BB062A96FF900895AA93F2
:100A0000E8B3EF70AE2FE881E07FEA2BE8BB8DE022
:100A10008A95F1F7C39A8DE08A95F1F7C3988DE036
:100A20008A95F1F79AC0AA93A881E9DFE881E29557
:100A3000E883A881E4DF85E88A95F1F78EC0AA9360
:100A4000E881F0E0E755FD4FE081A981AE0FEBDFD3
:100A5000E981E093AD02E881E093AE022296089529
:100A6000A2E00E945B06ACE0DEDFA1E00E945B0634
:100A7000E0E0E093AE02E093AD020895AA93A8816E
:100A8000AA3031F0E091AF02A091AD02AE1760F054
:100A9000E0E0EA93A091AE02AF5FA093AE02CFDF99
:100AA000A881AA3009F459C0E091AD02EF5FE0934C
:100AB000AD02C09AA881B7DFC0984FC0BA93AA937D
:100AC0001A93A981BA81ED91A983BA831E2FE030D0
:100AD00019F0A12FD3DFF5CF10C0BA93AA931A93C0
:100AE000E981FA813196E983FA833197E4911E2FE7
:100AF000E03019F0A12FC2DFF3CF188123960895BB
:100B0000AA93E7B3E06FE7BBBB9AB89AB99AC398C8
:100B1000C098C198E881E093AF02E058E093AB023F
:100B2000E881E054E093AC02A4E1B0E00E946906E1
:100B30000E9461060E9461060E946106A0E25FDFDA
:100B400088EC90E00197F1F7A8E26DDFA4E06BDF9D
:100B5000A5E869DFA6E067DF83DF21960895BA93F1
:100B6000AA93B981A881109631F0FC81EB816A814A
:100B700061931197E9F7EB81FC8125960895BA936B
:100B8000AA93E991F991A991B9916D917191671722
:100B900021F46623D1F7EE270895671BE1F3E1E026
:100BA00008F4E2500895BA93AA93A991B991EE2757
:100BB000FF276D91662311F03196FBCF0895BA930C
:100BC000AA93AA27BB27E991F9910590002011F07B
:100BD0001196FBCFFD010895AA93BA93EA93FA9375
:100BE000EFB7EA930895E0E0EA93A0E00C941F05C4
:100BF0000E946D05E0E0EA93A1E00C941F05A5E6D4
:100C0000B2E0AA0DBB1DEC91EBBB0895E8EEF1E05C
:100C1000E415F5050895E7E7F2E0FA93EA930895FD
:100C2000E0E0E093A302E093A4020895E0E0EA93F9
:100C3000AFE0B0E00C94AF05E6E8F2E0FA93EA9397
:100C4000F5CFE091A702F091A802309708950E9495
:100C50003005E0E0E093A702E093A80208952A930C
:100C6000AD85BE85EF85F88909950895E889F989EC
:100C70003497E88BF98B0895AD85BE85EF85F889AB
:100C800009950895A889B98914960E94A506EE834E
:100C9000FF83AE81BF810895A889B98914960E9407
:100CA000A506EA87FB870895DE011C960E9473065D
:100CB0000E94A50608950E941305A3E0B0E00C94DD
:100CC0006906A0E30E94FF0488EC90E00197F1F729
:100CD0000895109639F0A89580ED97E00197F1F707
:100CE0001197C9F708950024AF0DB01D0895F1952F
:100CF000E195F0400895F595E795F595E795F5951B
:100D0000E795F595E79508950024112490E1AA0F41
:100D1000BB1F001C111C0E1A1F0A18F40E0E1F1EFA
:100D200001C0A1609A9599F7FD01D0010895E8945A
:100D3000B7FF04C0A095B09511966894F7FDD7DF72
:100D4000E3DFFD010EF4D3DF0895ED91FC911197DF
:100D500008950590F491E02D08957A936A93FA939B
:100D6000EA9308955A934A933A932A931A930A93CB
:100D700008955D814C813B812A8119810881089504
:00000001FF
