:040000000C942A0032
:100004000C9400000C9400000C9400000C9400006C
:100014000C9400000C9400000C9400000C9400005C
:100024000C9400000C9400000C9400000C9400004C
:100034000C9400000C9400000C9400000C9400003C
:100044000C9400000C9400000C9400000C9400002C
:10005400F894EE27ECBBF1E0FBBFEBBFE5BF8DE00E
:10006400A2E0BB27ED938A95E9F780E098E0A0E64B
:10007400ED930197E9F7EFE5EDBFE8E0EEBFC0E6E9
:10008400D2E00C944500EFEFEABBE0E0EBBBE7BB4A
:10009400E0E8E8BBE0E0E4BBE5BBE1BBE2BBE3BF17
:1000A400E2BFECBFEFBDEEBDEDBDECBDE7BDE6BD0F
:1000B400EBBDEABDE9BDE8BDE2BDE5BDE4BDE3BD20
:1000C400E9BFE5BFE4BFEAB9E0E8E8B9E0E0E0BFD2
:1000D400E6B9EDB9E6BF0ED01BB2E52DA7E00E944C
:1000E4008A00E129EBBB539405D0E0E0EBBB02D0DE
:1000F400F2CFFFCFA8ECB0E00C948000109639F05A
:10010400A89580ED97E00197F1F71197C9F7089545
:10011400EE230E2EEA2F19F0EE0F0A94E9F7089554
:00000001FF
