:060000000C942F000C948B
:1000060000000C9400000C9400000C9400000C946A
:1000160000000C9400000C9400000C9400000C945A
:1000260000000C9400000C9400000C9400000C944A
:1000360000000C9400000C9400000C9400000C943A
:1000460000000C9400000C9400000C9400000100C9
:100056000100050054000000F894EE27ECBBF1E027
:10006600FBBFEBBFE5BF8DE0A2E0BB27ED938A9512
:10007600E9F780E098E0A0E6ED930197E9F7E6E579
:10008600F0E085919591009761F0A591B591059065
:100096001590BF01F00105900D920197E1F7FB0164
:1000A600F0CFEFE5EDBFE8E0EEBFC0E6D2E00C949E
:1000B6005C00EFEFEABBE0E0EBBBE7BBE8BBE4BB11
:1000C600E5BBE1BBE2BBE3BFE2BFECBFEFBDEEBD0C
:1000D600EDBDECBDE7BDE6BDEBBDEABDE9BDE8BDE6
:1000E600E2BDE5BDE4BDE3BDE9BFE5BFE4BFEAB9F6
:1000F600E0E8E8B9E0E0E0BFE6B9EDB9E6BF6624BE
:100106007724E8E0F0E06E167F067CF45BBA550CC7
:10011600A8ECB0E00E94B100552019F4E0E85E2E8C
:1001260004C0F30131963F01ECCFE8E0F0E03F0177
:1001360000240614070484F45BBA5694A8ECB0E0D5
:100146000E94B100552019F4E1E05E2E05C0F301CE
:1001560031973F013196ECCFD2CFFFCF109639F0D1
:10016600A89580ED97E00197F1F71197C9F70895E3
:00000001FF
